:020000040000FA
:100000000000AB2800000000DF00030E8301DE00CB
:100010008B1869290B186C290C189129D82A000013
:10002000831203130030E1002030E000E1220630AB
:1000300083120313E500003030235630831203137C
:10004000E50000303023003083120313E600013056
:100050003023003083120313E700023030230030D6
:1000600083120313E800033030239030831203130C
:10007000E90004303023003083120313EA00053016
:100080003023A82383120313F50006303023831294
:1000900003130030E100A030E000E12283160313D7
:1000A000DE308700831203138714080083160030A4
:1000B0009600D0308B008312D0308B008312031354
:1000C00005080B100800831205080B108316031394
:1000D00002309600D8308B008312D8308B00831208
:1000E0000313080083128E01FF308F003030900020
:1000F0008316031300308C0083120313080083124D
:100100002F1D8728E0308E00AF308F008B289C3069
:100110008E00FF308F0031309000831601308C004C
:10012000831203130800640083160F3081008312CA
:100130000800640083160D308100831208006400FB
:1001400083160A3081008312080064008316093088
:1001500081008312080000008501870183160313C4
:10016000FF308500831203130730990083160313B1
:10017000DE30870083120313FF308500DE308700F6
:100180008716831603130930810004309700073067
:1001900095000030990014161430940068308F00D8
:1001A0008312031316309800A520203084008001AC
:1001B000840A04087A3C031DD7280330A8000230C3
:1001C000A0002F150130A200A1010C13073050230D
:1001D000B0000F2083120313000056207F18F2286E
:1001E0006320FB28B001FC0A06307C02031DFA28BC
:1001F0000530FC007F107F207D08593C031D052938
:100200007E08AE3C031D05290C295930FD00AE3097
:10021000FE00FF01FC0124290000B01E24298312E6
:100220002F11AF10AF1687127F205620A201A10117
:100230000330A8000230A000FC017F10A601831645
:10024000141614309400831283120000AF1D2A2963
:100250008B13AB282F1D4029071E3F292F1A402939
:100260002F16A60A06302602031D38290530A600DF
:10027000053026023D297F1440297F1040292F1286
:10028000AF1C2529AF10722083160313003099008C
:10029000003094008312FE3087007F1C60290530F7
:1002A0007C02031957292F109F2056205B292F10FD
:1002B00099205620FC016300000000000000252961
:1002C0002F186529932063205B292F10A520632018
:1002D0005B298B10AF15D82A0B1083127F18862943
:1002E000A52087122F11AF10AF167F205620A20134
:1002F000A1010330A8000230A000FC017F10A6017C
:10030000831614161430940083128E292F15AF1003
:100310000130A200A101A6017F20562005080B1084
:10032000D82A0C10831200002F1D9729D52A9C3043
:100330008E00FF308F00A3000130C200E930C10001
:100340009530C0000030C3000330C4000430C50045
:100350000730C6000430C7000330C8000530C900AC
:100360000430CA000430CB000330CC000330CD0091
:100370000330CE000330CF000230D0000430D10073
:100380000430D2000530D3000430D4000430D5004E
:100390000330D6000230D7000330D8000430D90033
:1003A0000430DA000230DB000230DC00AF1AA72A8A
:1003B000FB0AA00A20082802031DD82AA001A80AC7
:1003C00064302802031DE6296330A80000000C1FDA
:1003D000EB290530DB0043080319F629DF308700DD
:1003E000DE30C30BF1298700DF300000DF308700EB
:1003F000DE30C40BF9298700DF3000008700DE30D3
:10040000C50B002A8700DF3000008700DE30C60BF6
:10041000072A8700DF3000008700DE30C70B0E2A76
:100420008700DF3000008700DE30C80B152A870008
:10043000DF3000008700DE30C90B1C2A8700DF3068
:1004400000008700DE30CA0B232A8700DF3000005F
:100450008700DE30CB0B2A2A8700DF3000008700C0
:10046000DE30CC0B312A8700DF3000008700DE3021
:10047000CD0B382A8700DF3000008700DE30CE0B3E
:100480003F2A8700DF3000008700DE30CF0B462A8E
:100490008700DF3000008700DE30D00B4D2A870058
:1004A000DF3000008700DE30D10B542A8700DF30B8
:1004B00000008700DE30D20B5B2A8700DF300000AF
:1004C0008700DE30D30B622A8700DF300000870010
:1004D000DE30D40B692A8700DF3000008700DE3071
:1004E000D50B702A8700DF3000008700DE30D60B86
:1004F000772A8700DF3000008700DE30D70B7E2AA6
:100500008700DF3000008700DE30D80B852A8700A7
:10051000DF3000008700DE30D90B8C2A8700DF3007
:1005200000008700DE30DA0B932A8700DF300000FE
:100530008700DE30DB0B9A2A8700DF30000087005F
:10054000DE30DC0BA12A8700DE3087002F14AF12CB
:100550004008400740074107420721072207FB07E1
:100560007B080F39A400A408031DB72AC32A000082
:10057000A403031DBE2A0A30A302C12A0A30A30223
:10058000B82A23088E00A10A2108193C031DD72A86
:10059000A101A20A2208013C031DD72A2F15E03031
:1005A0008E00AF308F008712D72AAF147220000060
:1005B0005E0E8300DF0E5F0E0900831203136414C6
:1005C000E42A831203136410831603130708F13916
:1005D0008700103083120313E30083120313071103
:1005E000871083120313E10DE00D83120313031C24
:1005F00087110318871507150000000007118312E3
:100600000313E30BF12A83120313871407158312D4
:100610000313641C2A2B83160313871583120313F9
:100620001030E300831203130711871083120313A2
:100630000715871D0310871903140711831203136D
:10064000E10DE00D83120313E30B162B831203134A
:10065000871407158316031307080E388700080050
:1006600083120313F100653E8400710DE03E831296
:100670000313E0008313000D83120313031C6010A7
:10068000031860148313000D83120313E10061103B
:1006900083130008992383120313E104E122003439
:1006A00083120313F100653E8400710DC03E831276
:1006B0000313E000DD2283120313600C610C83132B
:1006C0008000080083120313F30030230008831214
:1006D0000313F500831203137308502383120313CB
:1006E0007506031D0134831203136419852B08005A
:1006F000A823831203136415831203130730F40035
:100700008312031383137403622B83120313FF39C1
:10071000031D0134F40B802B641100348312031386
:100720000730F4007403502383120313F40B922B4D
:10073000080083120313F2000030F1000830F000CB
:10074000F20C0318F10AF00BA02B711800340134DD
:1007500083120313650866066706680669066A065B
:10076000FF3AEB000800000000000000000000005D
:100770000000000000000000000000000000000079
:100780000000000000000000000000000000000069
:100790000000000000000000000000000000000059
:1007A0000000000000000000000000000000000049
:1007B0000000000000000000000000000000000039
:1007C0000000000000000000000000000000000029
:1007D0000000000000000000000000000000000019
:1007E0000000000000000000000000000000000009
:1007F0000000000000000000A5200000AB28FF3F23
:1008000000000000000000000000000000000000E8
:1008100000000000000000000000000000000000D8
:1008200000000000000000000000000000000000C8
:1008300000000000000000000000000000000000B8
:1008400000000000000000000000000000000000A8
:1008500000000000000000000000A52000000028AB
:100860000000000000000000000000000000000088
:100870000000000000000000000000000000000078
:100880000000000000000000000000000000000068
:100890000000000000000000000000000000000058
:1008A0000000000000000000000000000000000048
:1008B00000000000000000000000A520000000284B
:1008C0000000000000000000000000000000000028
:1008D0000000000000000000000000000000000018
:1008E0000000000000000000000000000000000008
:1008F00000000000000000000000000000000000F8
:1009000000000000000000000000000000000000E7
:1009100000000000000000000000A52000000028EA
:1009200000000000000000000000000000000000C7
:1009300000000000000000000000000000000000B7
:1009400000000000000000000000000000000000A7
:100950000000000000000000000000000000000097
:100960000000000000000000000000000000000087
:1009700000000000000000000000A520000000288A
:100980000000000000000000000000000000000067
:100990000000000000000000000000000000000057
:1009A0000000000000000000000000000000000047
:1009B0000000000000000000000000000000000037
:1009C0000000000000000000000000000000000027
:1009D00000000000000000000000A520000000282A
:1009E0000000000000000000000000000000000007
:1009F00000000000000000000000000000000000F7
:100A000000000000000000000000000000000000E6
:100A100000000000000000000000000000000000D6
:100A200000000000000000000000000000000000C6
:100A300000000000000000000000A52000000028C9
:100A400000000000000000000000000000000000A6
:100A50000000000000000000000000000000000096
:100A60000000000000000000000000000000000086
:100A70000000000000000000000000000000000076
:100A80000000000000000000000000000000000066
:100A900000000000000000000000A5200000002869
:100AA0000000000000000000000000000000000046
:100AB0000000000000000000000000000000000036
:100AC0000000000000000000000000000000000026
:100AD0000000000000000000000000000000000016
:100AE0000000000000000000000000000000000006
:100AF00000000000000000000000A5200000002809
:100B000000000000000000000000000000000000E5
:100B100000000000000000000000000000000000D5
:100B200000000000000000000000000000000000C5
:100B300000000000000000000000000000000000B5
:100B400000000000000000000000000000000000A5
:100B500000000000000000000000A52000000028A8
:100B60000000000000000000000000000000000085
:100B70000000000000000000000000000000000075
:100B80000000000000000000000000000000000065
:100B90000000000000000000000000000000000055
:100BA0000000000000000000000000000000000045
:100BB00000000000000000000000A5200000002848
:100BC0000000000000000000000000000000000025
:100BD0000000000000000000000000000000000015
:100BE0000000000000000000000000000000000005
:100BF00000000000000000000000000000000000F5
:100C000000000000000000000000000000000000E4
:100C100000000000000000000000A52000000028E7
:100C200000000000000000000000000000000000C4
:100C300000000000000000000000000000000000B4
:100C400000000000000000000000000000000000A4
:100C50000000000000000000000000000000000094
:100C60000000000000000000000000000000000084
:100C700000000000000000000000A5200000002887
:100C80000000000000000000000000000000000064
:100C90000000000000000000000000000000000054
:100CA0000000000000000000000000000000000044
:100CB0000000000000000000000000000000000034
:100CC0000000000000000000000000000000000024
:100CD00000000000000000000000A5200000002827
:100CE0000000000000000000000000000000000004
:100CF00000000000000000000000000000000000F4
:100D000000000000000000000000000000000000E3
:100D100000000000000000000000000000000000D3
:100D200000000000000000000000000000000000C3
:100D300000000000000000000000A52000000028C6
:100D400000000000000000000000000000000000A3
:100D50000000000000000000000000000000000093
:100D60000000000000000000000000000000000083
:100D70000000000000000000000000000000000073
:100D80000000000000000000000000000000000063
:100D900000000000000000000000A5200000002866
:100DA0000000000000000000000000000000000043
:100DB0000000000000000000000000000000000033
:100DC0000000000000000000000000000000000023
:100DD0000000000000000000000000000000000013
:100DE0000000000000000000000000000000000003
:100DF00000000000000000000000A5200000002806
:100E000000000000000000000000000000000000E2
:100E100000000000000000000000000000000000D2
:100E200000000000000000000000000000000000C2
:100E300000000000000000000000000000000000B2
:100E400000000000000000000000000000000000A2
:100E500000000000000000000000A52000000028A5
:100E60000000000000000000000000000000000082
:100E70000000000000000000000000000000000072
:100E80000000000000000000000000000000000062
:100E90000000000000000000000000000000000052
:100EA0000000000000000000000000000000000042
:100EB00000000000000000000000A5200000002845
:100EC0000000000000000000000000000000000022
:100ED0000000000000000000000000000000000012
:100EE0000000000000000000000000000000000002
:100EF00000000000000000000000000000000000F2
:100F000000000000000000000000000000000000E1
:100F100000000000000000000000A52000000028E4
:100F200000000000000000000000000000000000C1
:100F300000000000000000000000000000000000B1
:100F400000000000000000000000000000000000A1
:100F50000000000000000000000000000000000091
:100F60000000000000000000000000000000000081
:100F700000000000000000000000A5200000002884
:100F80000000000000000000000000000000000061
:100F90000000000000000000000000000000000051
:100FA0000000000000000000000000000000000041
:100FB0000000000000000000000000000000000031
:100FC0000000000000000000000000000000000021
:100FD00000000000000000000000A5200000002824
:100FE0000000000000000000000000000000000001
:100FF00000000000000000000000A5200000002804
:02400E00FA288E
:08400000FF3FFF3FFF3FFF3FC0
:10420000FF00FF00FF00FF00FF00FF00FF00FF00B6
:10421000FF00FF00FF00FF00FF00FF00FF00FF00A6
:10422000FF00FF00FF00FF00FF00FF00FF00FF0096
:00000001FF
