:020000040000FA
:100000000000AB2800000000DF00030E8301DE00CB
:100010008B186A290B186D290C189229D92A00000F
:10002000831203130030E1002030E000E2220630AA
:1000300083120313E500003031235630831203137B
:10004000E50000303123003083120313E600013055
:100050003123003083120313E700023031230030D4
:1000600083120313E800033031239030831203130B
:10007000E90004303123003083120313EA00053015
:100080003123A92383120313F50006303123831291
:1000900003130030E100A030E000E22283160313D6
:1000A000DE308700831203138714080083160030A4
:1000B0009600D0308B008312D0308B008312031354
:1000C00005080B100800831205080B108316031394
:1000D00002309600D8308B008312D8308B00831208
:1000E0000313080083128E01FF308F003030900020
:1000F0008316031300308C0083120313080083124D
:100100002F1D8728E0308E00AF308F008B289C3069
:100110008E00FF308F0031309000831601308C004C
:10012000831203130800640083160F3081008312CA
:100130000800640083160D308100831208006400FB
:1001400083160A3081008312080064008316093088
:1001500081008312080000008501870183160313C4
:10016000FF308500831203130730990083160313B1
:10017000DE30870083120313FF308500DE308700F6
:100180008716831603130930810004309700073067
:1001900095000030990014161430940068308F00D8
:1001A0008312031316309800A520203084008001AC
:1001B000840A04087A3C031DD7280330A8000230C3
:1001C000A0002F150130A200A1010C13073051230C
:1001D000B0000F2083120313000056207F18F2286E
:1001E0006320FB28B001FC0A06307C02031DFA28BC
:1001F0000530FC007F107F207D08593C031D052938
:100200007E08AE3C031D05290C295930FD00AE3097
:10021000FE00FF01FC0124290000B01E24298312E6
:100220002F11AF10AF1687127F205620A201A10117
:100230000330A8000230A000FC017F10A601831645
:10024000141614309400831283120000AF1D2A2963
:100250008B13AB282F1D4129071E40292F1A412936
:100260002F16A60A06302602031D38290530A600DF
:1002700005302602031D3E297F1441297F104129A4
:100280002F12AF1C2529AF107220831603130030E4
:100290009900003094008312FE3087007F1C612992
:1002A00005307C02031958292F109F2056205C2905
:1002B0002F1099205620FC01630000000000000070
:1002C00025292F186629932063205C292F10A5204B
:1002D00063205C298B10AF15D92A0B1083127F186D
:1002E0008729A52087122F11AF10AF167F20562027
:1002F000A201A1010330A8000230A000FC017F1080
:10030000A601831614161430940083128F292F151A
:10031000AF100130A200A101A6017F2056200508E0
:100320000B10D92A0C10831200002F1D9829D62AF1
:100330009C308E00FF308F00A3000130C2006C3073
:10034000C100CC30C0000030C3000330C400043012
:10035000C5000730C6000430C7000430C8000230B2
:10036000C9000530CA000530CB000230CC00053092
:10037000CD000230CE000330CF000530D000043075
:10038000D1000430D2000330D3000430D400053053
:10039000D5000230D6000230D7000330D800043038
:1003A000D9000530DA000230DB000230DC00AF1A81
:1003B000A82AFB0AA00A20082802031DD92AA001A6
:1003C000A80A64302802031DE7296330A800000052
:1003D0000C1FEC290530DB0043080319F729DF3037
:1003E0008700DE30C30BF2298700DF300000DF30EA
:1003F0008700DE30C40BFA298700DF300000870059
:10040000DE30C50B012A8700DF3000008700DE30B8
:10041000C60B082A8700DF3000008700DE30C70BDC
:100420000F2A8700DF3000008700DE30C80B162A55
:100430008700DF3000008700DE30C90B1D2A8700EF
:10044000DF3000008700DE30CA0B242A8700DF304F
:1004500000008700DE30CB0B2B2A8700DF30000046
:100460008700DE30CC0B322A8700DF3000008700A7
:10047000DE30CD0B392A8700DF3000008700DE3008
:10048000CE0B402A8700DF3000008700DE30CF0B24
:10049000472A8700DF3000008700DE30D00B4E2A6D
:1004A0008700DF3000008700DE30D10B552A87003F
:1004B000DF3000008700DE30D20B5C2A8700DF309F
:1004C00000008700DE30D30B632A8700DF30000096
:1004D0008700DE30D40B6A2A8700DF3000008700F7
:1004E000DE30D50B712A8700DF3000008700DE3058
:1004F000D60B782A8700DF3000008700DE30D70B6C
:100500007F2A8700DF3000008700DE30D80B862A84
:100510008700DF3000008700DE30D90B8D2A87008E
:10052000DF3000008700DE30DA0B942A8700DF30EE
:1005300000008700DE30DB0B9B2A8700DF300000E5
:100540008700DE30DC0BA22A8700DE3087002F1404
:10055000AF12400840074007410742072107220722
:10056000FB077B080F39A400A408031DB82AC42A7E
:100570000000A403031DBF2A0A30A302C22A0A30C6
:10058000A302B92A23088E00A10A2108253C031DD5
:10059000D82AA101A20A2208013C031DD82A2F153E
:1005A000E0308E00AF308F008712D82AAF1472204F
:1005B00000005E0E8300DF0E5F0E0900831203133E
:1005C0006414E52A831203136410831603130708C7
:1005D000F1398700103083120313E30083120313F1
:1005E0000711871083120313E10DE00D831203132B
:1005F000031C871103188715071500000000071159
:1006000083120313E30BF22A8312031387140715D3
:1006100083120313641C2B2B831603138715831279
:1006200003131030E30083120313071187108312A2
:1006300003130715871D031087190314071183126D
:100640000313E10DE00D83120313E30B172B831249
:100650000313871407158316031307080E38870042
:10066000080083120313F100653E8400710DE03E23
:1006700083120313E0008313000D83120313031C82
:100680006010031860148313000D83120313E1003C
:100690006110831300089A2383120313E104E222FA
:1006A000003483120313F100653E8400710DC03ED7
:1006B00083120313E000DE2283120313600C610C2B
:1006C00083138000080083120313F3003123000812
:1006D00083120313F500831203137308512383124B
:1006E00003137506031D0134831203136419862B4B
:1006F0000800A92383120313641583120313073020
:10070000F4008312031383137403632B8312031304
:10071000FF39031D0134F40B812B64110034831263
:1007200003130730F4007403512383120313F40BF3
:10073000932B080083120313F2000030F1000830FD
:10074000F000F20C0318F10AF00BA12B7118003421
:100750000134831203136508660667066806690696
:100760006A06FF3AEB0008000000000000000000ED
:100770000000000000000000000000000000000079
:100780000000000000000000000000000000000069
:100790000000000000000000000000000000000059
:1007A0000000000000000000000000000000000049
:1007B0000000000000000000000000000000000039
:1007C0000000000000000000000000000000000029
:1007D0000000000000000000000000000000000019
:1007E0000000000000000000000000000000000009
:1007F00000000000000000000000A5200000AB2861
:1008000000000000000000000000000000000000E8
:1008100000000000000000000000000000000000D8
:1008200000000000000000000000000000000000C8
:1008300000000000000000000000000000000000B8
:1008400000000000000000000000000000000000A8
:1008500000000000000000000000A52000000028AB
:100860000000000000000000000000000000000088
:100870000000000000000000000000000000000078
:100880000000000000000000000000000000000068
:100890000000000000000000000000000000000058
:1008A0000000000000000000000000000000000048
:1008B00000000000000000000000A520000000284B
:1008C0000000000000000000000000000000000028
:1008D0000000000000000000000000000000000018
:1008E0000000000000000000000000000000000008
:1008F00000000000000000000000000000000000F8
:1009000000000000000000000000000000000000E7
:1009100000000000000000000000A52000000028EA
:1009200000000000000000000000000000000000C7
:1009300000000000000000000000000000000000B7
:1009400000000000000000000000000000000000A7
:100950000000000000000000000000000000000097
:100960000000000000000000000000000000000087
:1009700000000000000000000000A520000000288A
:100980000000000000000000000000000000000067
:100990000000000000000000000000000000000057
:1009A0000000000000000000000000000000000047
:1009B0000000000000000000000000000000000037
:1009C0000000000000000000000000000000000027
:1009D00000000000000000000000A520000000282A
:1009E0000000000000000000000000000000000007
:1009F00000000000000000000000000000000000F7
:100A000000000000000000000000000000000000E6
:100A100000000000000000000000000000000000D6
:100A200000000000000000000000000000000000C6
:100A300000000000000000000000A52000000028C9
:100A400000000000000000000000000000000000A6
:100A50000000000000000000000000000000000096
:100A60000000000000000000000000000000000086
:100A70000000000000000000000000000000000076
:100A80000000000000000000000000000000000066
:100A900000000000000000000000A5200000002869
:100AA0000000000000000000000000000000000046
:100AB0000000000000000000000000000000000036
:100AC0000000000000000000000000000000000026
:100AD0000000000000000000000000000000000016
:100AE0000000000000000000000000000000000006
:100AF00000000000000000000000A5200000002809
:100B000000000000000000000000000000000000E5
:100B100000000000000000000000000000000000D5
:100B200000000000000000000000000000000000C5
:100B300000000000000000000000000000000000B5
:100B400000000000000000000000000000000000A5
:100B500000000000000000000000A52000000028A8
:100B60000000000000000000000000000000000085
:100B70000000000000000000000000000000000075
:100B80000000000000000000000000000000000065
:100B90000000000000000000000000000000000055
:100BA0000000000000000000000000000000000045
:100BB00000000000000000000000A5200000002848
:100BC0000000000000000000000000000000000025
:100BD0000000000000000000000000000000000015
:100BE0000000000000000000000000000000000005
:100BF00000000000000000000000000000000000F5
:100C000000000000000000000000000000000000E4
:100C100000000000000000000000A52000000028E7
:100C200000000000000000000000000000000000C4
:100C300000000000000000000000000000000000B4
:100C400000000000000000000000000000000000A4
:100C50000000000000000000000000000000000094
:100C60000000000000000000000000000000000084
:100C700000000000000000000000A5200000002887
:100C80000000000000000000000000000000000064
:100C90000000000000000000000000000000000054
:100CA0000000000000000000000000000000000044
:100CB0000000000000000000000000000000000034
:100CC0000000000000000000000000000000000024
:100CD00000000000000000000000A5200000002827
:100CE0000000000000000000000000000000000004
:100CF00000000000000000000000000000000000F4
:100D000000000000000000000000000000000000E3
:100D100000000000000000000000000000000000D3
:100D200000000000000000000000000000000000C3
:100D300000000000000000000000A52000000028C6
:100D400000000000000000000000000000000000A3
:100D50000000000000000000000000000000000093
:100D60000000000000000000000000000000000083
:100D70000000000000000000000000000000000073
:100D80000000000000000000000000000000000063
:100D900000000000000000000000A5200000002866
:100DA0000000000000000000000000000000000043
:100DB0000000000000000000000000000000000033
:100DC0000000000000000000000000000000000023
:100DD0000000000000000000000000000000000013
:100DE0000000000000000000000000000000000003
:100DF00000000000000000000000A5200000002806
:100E000000000000000000000000000000000000E2
:100E100000000000000000000000000000000000D2
:100E200000000000000000000000000000000000C2
:100E300000000000000000000000000000000000B2
:100E400000000000000000000000000000000000A2
:100E500000000000000000000000A52000000028A5
:100E60000000000000000000000000000000000082
:100E70000000000000000000000000000000000072
:100E80000000000000000000000000000000000062
:100E90000000000000000000000000000000000052
:100EA0000000000000000000000000000000000042
:100EB00000000000000000000000A5200000002845
:100EC0000000000000000000000000000000000022
:100ED0000000000000000000000000000000000012
:100EE0000000000000000000000000000000000002
:100EF00000000000000000000000000000000000F2
:100F000000000000000000000000000000000000E1
:100F100000000000000000000000A52000000028E4
:100F200000000000000000000000000000000000C1
:100F300000000000000000000000000000000000B1
:100F400000000000000000000000000000000000A1
:100F50000000000000000000000000000000000091
:100F60000000000000000000000000000000000081
:100F700000000000000000000000A5200000002884
:100F80000000000000000000000000000000000061
:100F90000000000000000000000000000000000051
:100FA0000000000000000000000000000000000041
:100FB0000000000000000000000000000000000031
:100FC0000000000000000000000000000000000021
:100FD00000000000000000000000A5200000002824
:100FE0000000000000000000000000000000000001
:100FF00000000000000000000000A5200000002804
:02400E00FA288E
:10420000FF00FF00FF00FF00FF00FF00FF00FF00B6
:10421000FF00FF00FF00FF00FF00FF00FF00FF00A6
:10422000FF00FF00FF00FF00FF00FF00FF00FF0096
:10423000FF00FF00FF00FF00FF00FF00FF00FF0086
:00000001FF
